{
  "_format": "hh-sol-artifact-1",
  "contractName": "YourBeFun",
  "sourceName": "contracts/YourBeFun.sol",
  "abi": [
    {
      "inputs": [
        {
          "internalType": "address",
          "name": "initialOwner",
          "type": "address"
        },
        {
          "internalType": "address",
          "name": "recipient",
          "type": "address"
        },
        {
          "internalType": "uint256",
          "name": "_fee",
          "type": "uint256"
        }
      ],
      "stateMutability": "nonpayable",
      "type": "constructor"
    },
    {
      "inputs": [],
      "name": "ECDSAInvalidSignature",
      "type": "error"
    },
    {
      "inputs": [
        {
          "internalType": "uint256",
          "name": "length",
          "type": "uint256"
        }
      ],
      "name": "ECDSAInvalidSignatureLength",
      "type": "error"
    },
    {
      "inputs": [
        {
          "internalType": "bytes32",
          "name": "s",
          "type": "bytes32"
        }
      ],
      "name": "ECDSAInvalidSignatureS",
      "type": "error"
    },
    {
      "inputs": [
        {
          "internalType": "address",
          "name": "spender",
          "type": "address"
        },
        {
          "internalType": "uint256",
          "name": "allowance",
          "type": "uint256"
        },
        {
          "internalType": "uint256",
          "name": "needed",
          "type": "uint256"
        }
      ],
      "name": "ERC20InsufficientAllowance",
      "type": "error"
    },
    {
      "inputs": [
        {
          "internalType": "address",
          "name": "sender",
          "type": "address"
        },
        {
          "internalType": "uint256",
          "name": "balance",
          "type": "uint256"
        },
        {
          "internalType": "uint256",
          "name": "needed",
          "type": "uint256"
        }
      ],
      "name": "ERC20InsufficientBalance",
      "type": "error"
    },
    {
      "inputs": [
        {
          "internalType": "address",
          "name": "approver",
          "type": "address"
        }
      ],
      "name": "ERC20InvalidApprover",
      "type": "error"
    },
    {
      "inputs": [
        {
          "internalType": "address",
          "name": "receiver",
          "type": "address"
        }
      ],
      "name": "ERC20InvalidReceiver",
      "type": "error"
    },
    {
      "inputs": [
        {
          "internalType": "address",
          "name": "sender",
          "type": "address"
        }
      ],
      "name": "ERC20InvalidSender",
      "type": "error"
    },
    {
      "inputs": [
        {
          "internalType": "address",
          "name": "spender",
          "type": "address"
        }
      ],
      "name": "ERC20InvalidSpender",
      "type": "error"
    },
    {
      "inputs": [
        {
          "internalType": "uint256",
          "name": "deadline",
          "type": "uint256"
        }
      ],
      "name": "ERC2612ExpiredSignature",
      "type": "error"
    },
    {
      "inputs": [
        {
          "internalType": "address",
          "name": "signer",
          "type": "address"
        },
        {
          "internalType": "address",
          "name": "owner",
          "type": "address"
        }
      ],
      "name": "ERC2612InvalidSigner",
      "type": "error"
    },
    {
      "inputs": [],
      "name": "EnforcedPause",
      "type": "error"
    },
    {
      "inputs": [],
      "name": "ExpectedPause",
      "type": "error"
    },
    {
      "inputs": [
        {
          "internalType": "address",
          "name": "account",
          "type": "address"
        },
        {
          "internalType": "uint256",
          "name": "currentNonce",
          "type": "uint256"
        }
      ],
      "name": "InvalidAccountNonce",
      "type": "error"
    },
    {
      "inputs": [],
      "name": "InvalidShortString",
      "type": "error"
    },
    {
      "inputs": [
        {
          "internalType": "address",
          "name": "owner",
          "type": "address"
        }
      ],
      "name": "OwnableInvalidOwner",
      "type": "error"
    },
    {
      "inputs": [
        {
          "internalType": "address",
          "name": "account",
          "type": "address"
        }
      ],
      "name": "OwnableUnauthorizedAccount",
      "type": "error"
    },
    {
      "inputs": [
        {
          "internalType": "string",
          "name": "str",
          "type": "string"
        }
      ],
      "name": "StringTooLong",
      "type": "error"
    },
    {
      "anonymous": false,
      "inputs": [
        {
          "indexed": true,
          "internalType": "address",
          "name": "owner",
          "type": "address"
        },
        {
          "indexed": true,
          "internalType": "address",
          "name": "spender",
          "type": "address"
        },
        {
          "indexed": false,
          "internalType": "uint256",
          "name": "value",
          "type": "uint256"
        }
      ],
      "name": "Approval",
      "type": "event"
    },
    {
      "anonymous": false,
      "inputs": [],
      "name": "EIP712DomainChanged",
      "type": "event"
    },
    {
      "anonymous": false,
      "inputs": [
        {
          "indexed": false,
          "internalType": "uint256",
          "name": "newFee",
          "type": "uint256"
        }
      ],
      "name": "FeeUpdated",
      "type": "event"
    },
    {
      "anonymous": false,
      "inputs": [
        {
          "indexed": true,
          "internalType": "address",
          "name": "previousOwner",
          "type": "address"
        },
        {
          "indexed": true,
          "internalType": "address",
          "name": "newOwner",
          "type": "address"
        }
      ],
      "name": "OwnershipTransferred",
      "type": "event"
    },
    {
      "anonymous": false,
      "inputs": [
        {
          "indexed": false,
          "internalType": "address",
          "name": "account",
          "type": "address"
        }
      ],
      "name": "Paused",
      "type": "event"
    },
    {
      "anonymous": false,
      "inputs": [
        {
          "indexed": true,
          "internalType": "address",
          "name": "from",
          "type": "address"
        },
        {
          "indexed": true,
          "internalType": "address",
          "name": "to",
          "type": "address"
        },
        {
          "indexed": false,
          "internalType": "uint256",
          "name": "value",
          "type": "uint256"
        }
      ],
      "name": "Transfer",
      "type": "event"
    },
    {
      "anonymous": false,
      "inputs": [
        {
          "indexed": false,
          "internalType": "address",
          "name": "account",
          "type": "address"
        }
      ],
      "name": "Unpaused",
      "type": "event"
    },
    {
      "anonymous": false,
      "inputs": [
        {
          "indexed": true,
          "internalType": "address",
          "name": "sender",
          "type": "address"
        },
        {
          "indexed": false,
          "internalType": "string",
          "name": "message",
          "type": "string"
        },
        {
          "indexed": false,
          "internalType": "uint256",
          "name": "senderMessageCount",
          "type": "uint256"
        },
        {
          "indexed": false,
          "internalType": "uint256",
          "name": "totalMessages",
          "type": "uint256"
        }
      ],
      "name": "YBFMessageSent",
      "type": "event"
    },
    {
      "anonymous": false,
      "inputs": [
        {
          "indexed": false,
          "internalType": "bool",
          "name": "isPaused",
          "type": "bool"
        }
      ],
      "name": "YBFPaused",
      "type": "event"
    },
    {
      "inputs": [],
      "name": "DOMAIN_SEPARATOR",
      "outputs": [
        {
          "internalType": "bytes32",
          "name": "",
          "type": "bytes32"
        }
      ],
      "stateMutability": "view",
      "type": "function"
    },
    {
      "inputs": [],
      "name": "INITIAL_SUPPLY",
      "outputs": [
        {
          "internalType": "uint256",
          "name": "",
          "type": "uint256"
        }
      ],
      "stateMutability": "view",
      "type": "function"
    },
    {
      "inputs": [],
      "name": "MAX_MESSAGES",
      "outputs": [
        {
          "internalType": "uint256",
          "name": "",
          "type": "uint256"
        }
      ],
      "stateMutability": "view",
      "type": "function"
    },
    {
      "inputs": [
        {
          "internalType": "address",
          "name": "owner",
          "type": "address"
        },
        {
          "internalType": "address",
          "name": "spender",
          "type": "address"
        }
      ],
      "name": "allowance",
      "outputs": [
        {
          "internalType": "uint256",
          "name": "",
          "type": "uint256"
        }
      ],
      "stateMutability": "view",
      "type": "function"
    },
    {
      "inputs": [
        {
          "internalType": "address",
          "name": "spender",
          "type": "address"
        },
        {
          "internalType": "uint256",
          "name": "value",
          "type": "uint256"
        }
      ],
      "name": "approve",
      "outputs": [
        {
          "internalType": "bool",
          "name": "",
          "type": "bool"
        }
      ],
      "stateMutability": "nonpayable",
      "type": "function"
    },
    {
      "inputs": [
        {
          "internalType": "address",
          "name": "account",
          "type": "address"
        }
      ],
      "name": "balanceOf",
      "outputs": [
        {
          "internalType": "uint256",
          "name": "",
          "type": "uint256"
        }
      ],
      "stateMutability": "view",
      "type": "function"
    },
    {
      "inputs": [],
      "name": "btFee",
      "outputs": [
        {
          "internalType": "uint256",
          "name": "",
          "type": "uint256"
        }
      ],
      "stateMutability": "view",
      "type": "function"
    },
    {
      "inputs": [
        {
          "internalType": "uint256",
          "name": "value",
          "type": "uint256"
        }
      ],
      "name": "burn",
      "outputs": [],
      "stateMutability": "nonpayable",
      "type": "function"
    },
    {
      "inputs": [
        {
          "internalType": "address",
          "name": "account",
          "type": "address"
        },
        {
          "internalType": "uint256",
          "name": "value",
          "type": "uint256"
        }
      ],
      "name": "burnFrom",
      "outputs": [],
      "stateMutability": "nonpayable",
      "type": "function"
    },
    {
      "inputs": [],
      "name": "decimals",
      "outputs": [
        {
          "internalType": "uint8",
          "name": "",
          "type": "uint8"
        }
      ],
      "stateMutability": "view",
      "type": "function"
    },
    {
      "inputs": [],
      "name": "eip712Domain",
      "outputs": [
        {
          "internalType": "bytes1",
          "name": "fields",
          "type": "bytes1"
        },
        {
          "internalType": "string",
          "name": "name",
          "type": "string"
        },
        {
          "internalType": "string",
          "name": "version",
          "type": "string"
        },
        {
          "internalType": "uint256",
          "name": "chainId",
          "type": "uint256"
        },
        {
          "internalType": "address",
          "name": "verifyingContract",
          "type": "address"
        },
        {
          "internalType": "bytes32",
          "name": "salt",
          "type": "bytes32"
        },
        {
          "internalType": "uint256[]",
          "name": "extensions",
          "type": "uint256[]"
        }
      ],
      "stateMutability": "view",
      "type": "function"
    },
    {
      "inputs": [],
      "name": "getLastMessages",
      "outputs": [
        {
          "components": [
            {
              "internalType": "uint256",
              "name": "index",
              "type": "uint256"
            },
            {
              "internalType": "uint256",
              "name": "timestamp",
              "type": "uint256"
            },
            {
              "internalType": "address",
              "name": "sender",
              "type": "address"
            },
            {
              "internalType": "string",
              "name": "message",
              "type": "string"
            }
          ],
          "internalType": "struct YourBeFun.YBFMessage[]",
          "name": "",
          "type": "tuple[]"
        }
      ],
      "stateMutability": "view",
      "type": "function"
    },
    {
      "inputs": [
        {
          "internalType": "address",
          "name": "",
          "type": "address"
        }
      ],
      "name": "messageCount",
      "outputs": [
        {
          "internalType": "uint256",
          "name": "",
          "type": "uint256"
        }
      ],
      "stateMutability": "view",
      "type": "function"
    },
    {
      "inputs": [
        {
          "internalType": "uint256",
          "name": "",
          "type": "uint256"
        }
      ],
      "name": "messages",
      "outputs": [
        {
          "internalType": "uint256",
          "name": "index",
          "type": "uint256"
        },
        {
          "internalType": "uint256",
          "name": "timestamp",
          "type": "uint256"
        },
        {
          "internalType": "address",
          "name": "sender",
          "type": "address"
        },
        {
          "internalType": "string",
          "name": "message",
          "type": "string"
        }
      ],
      "stateMutability": "view",
      "type": "function"
    },
    {
      "inputs": [
        {
          "internalType": "address",
          "name": "to",
          "type": "address"
        },
        {
          "internalType": "uint256",
          "name": "amount",
          "type": "uint256"
        }
      ],
      "name": "mint",
      "outputs": [],
      "stateMutability": "nonpayable",
      "type": "function"
    },
    {
      "inputs": [],
      "name": "name",
      "outputs": [
        {
          "internalType": "string",
          "name": "",
          "type": "string"
        }
      ],
      "stateMutability": "view",
      "type": "function"
    },
    {
      "inputs": [
        {
          "internalType": "address",
          "name": "owner",
          "type": "address"
        }
      ],
      "name": "nonces",
      "outputs": [
        {
          "internalType": "uint256",
          "name": "",
          "type": "uint256"
        }
      ],
      "stateMutability": "view",
      "type": "function"
    },
    {
      "inputs": [],
      "name": "owner",
      "outputs": [
        {
          "internalType": "address",
          "name": "",
          "type": "address"
        }
      ],
      "stateMutability": "view",
      "type": "function"
    },
    {
      "inputs": [],
      "name": "pause",
      "outputs": [],
      "stateMutability": "nonpayable",
      "type": "function"
    },
    {
      "inputs": [],
      "name": "paused",
      "outputs": [
        {
          "internalType": "bool",
          "name": "",
          "type": "bool"
        }
      ],
      "stateMutability": "view",
      "type": "function"
    },
    {
      "inputs": [
        {
          "internalType": "address",
          "name": "owner",
          "type": "address"
        },
        {
          "internalType": "address",
          "name": "spender",
          "type": "address"
        },
        {
          "internalType": "uint256",
          "name": "value",
          "type": "uint256"
        },
        {
          "internalType": "uint256",
          "name": "deadline",
          "type": "uint256"
        },
        {
          "internalType": "uint8",
          "name": "v",
          "type": "uint8"
        },
        {
          "internalType": "bytes32",
          "name": "r",
          "type": "bytes32"
        },
        {
          "internalType": "bytes32",
          "name": "s",
          "type": "bytes32"
        }
      ],
      "name": "permit",
      "outputs": [],
      "stateMutability": "nonpayable",
      "type": "function"
    },
    {
      "inputs": [],
      "name": "renounceOwnership",
      "outputs": [],
      "stateMutability": "nonpayable",
      "type": "function"
    },
    {
      "inputs": [
        {
          "internalType": "string",
          "name": "message",
          "type": "string"
        }
      ],
      "name": "sendMessage",
      "outputs": [],
      "stateMutability": "payable",
      "type": "function"
    },
    {
      "inputs": [],
      "name": "symbol",
      "outputs": [
        {
          "internalType": "string",
          "name": "",
          "type": "string"
        }
      ],
      "stateMutability": "view",
      "type": "function"
    },
    {
      "inputs": [],
      "name": "totalMessages",
      "outputs": [
        {
          "internalType": "uint256",
          "name": "",
          "type": "uint256"
        }
      ],
      "stateMutability": "view",
      "type": "function"
    },
    {
      "inputs": [],
      "name": "totalSupply",
      "outputs": [
        {
          "internalType": "uint256",
          "name": "",
          "type": "uint256"
        }
      ],
      "stateMutability": "view",
      "type": "function"
    },
    {
      "inputs": [
        {
          "internalType": "address",
          "name": "to",
          "type": "address"
        },
        {
          "internalType": "uint256",
          "name": "value",
          "type": "uint256"
        }
      ],
      "name": "transfer",
      "outputs": [
        {
          "internalType": "bool",
          "name": "",
          "type": "bool"
        }
      ],
      "stateMutability": "nonpayable",
      "type": "function"
    },
    {
      "inputs": [
        {
          "internalType": "address",
          "name": "from",
          "type": "address"
        },
        {
          "internalType": "address",
          "name": "to",
          "type": "address"
        },
        {
          "internalType": "uint256",
          "name": "value",
          "type": "uint256"
        }
      ],
      "name": "transferFrom",
      "outputs": [
        {
          "internalType": "bool",
          "name": "",
          "type": "bool"
        }
      ],
      "stateMutability": "nonpayable",
      "type": "function"
    },
    {
      "inputs": [
        {
          "internalType": "address",
          "name": "newOwner",
          "type": "address"
        }
      ],
      "name": "transferOwnership",
      "outputs": [],
      "stateMutability": "nonpayable",
      "type": "function"
    },
    {
      "inputs": [],
      "name": "unpause",
      "outputs": [],
      "stateMutability": "nonpayable",
      "type": "function"
    },
    {
      "inputs": [
        {
          "internalType": "uint256",
          "name": "newFee",
          "type": "uint256"
        }
      ],
      "name": "updateFee",
      "outputs": [],
      "stateMutability": "nonpayable",
      "type": "function"
    },
    {
      "inputs": [],
      "name": "withdraw",
      "outputs": [],
      "stateMutability": "nonpayable",
      "type": "function"
    }
  ],
  "bytecode": "0x61016060405234801561001157600080fd5b5060405161421b38038061421b83398181016040528101906100339190610863565b6040518060400160405280600b81526020017f594f55522042452046554e000000000000000000000000000000000000000000815250806040518060400160405280600181526020017f3100000000000000000000000000000000000000000000000000000000000000815250856040518060400160405280600b81526020017f594f55522042452046554e0000000000000000000000000000000000000000008152506040518060400160405280600381526020017f5942460000000000000000000000000000000000000000000000000000000000815250816003908161011c9190610afc565b50806004908161012c9190610afc565b5050506000600560006101000a81548160ff021916908315150217905550600073ffffffffffffffffffffffffffffffffffffffff168173ffffffffffffffffffffffffffffffffffffffff16036101bc5760006040517f1e4fbdf70000000000000000000000000000000000000000000000000000000081526004016101b39190610bdd565b60405180910390fd5b6101cb816102a260201b60201c565b506101e060068361036860201b90919060201c565b61012081815250506101fc60078261036860201b90919060201c565b6101408181525050818051906020012060e08181525050808051906020012061010081815250504660a081815250506102396103b860201b60201c565b608081815250503073ffffffffffffffffffffffffffffffffffffffff1660c08173ffffffffffffffffffffffffffffffffffffffff1681525050505050610293826b033b2e3c9fd0803ce800000061041360201b60201c565b80600981905550505050610e66565b6000600560019054906101000a900473ffffffffffffffffffffffffffffffffffffffff16905081600560016101000a81548173ffffffffffffffffffffffffffffffffffffffff021916908373ffffffffffffffffffffffffffffffffffffffff1602179055508173ffffffffffffffffffffffffffffffffffffffff168173ffffffffffffffffffffffffffffffffffffffff167f8be0079c531659141344cd1fd0a4f28419497f9722a3daafe3b4186f6b6457e060405160405180910390a35050565b600060208351101561038a576103838361049b60201b60201c565b90506103b2565b8261039a8361050360201b60201c565b60000190816103a99190610afc565b5060ff60001b90505b92915050565b60007f8b73c3c69bb8fe3d512ecc4cf759cc79239f7b179b0ffacaa9a75d522b39400f60e0516101005146306040516020016103f8959493929190610c20565b60405160208183030381529060405280519060200120905090565b600073ffffffffffffffffffffffffffffffffffffffff168273ffffffffffffffffffffffffffffffffffffffff16036104855760006040517fec442f0500000000000000000000000000000000000000000000000000000000815260040161047c9190610bdd565b60405180910390fd5b6104976000838361050d60201b60201c565b5050565b600080829050601f815111156104e857826040517f305a27a90000000000000000000000000000000000000000000000000000000081526004016104df9190610cf8565b60405180910390fd5b8051816104f490610d4a565b60001c1760001b915050919050565b6000819050919050565b61051e83838361052360201b60201c565b505050565b61053161054760201b60201c565b61054283838361058e60201b60201c565b505050565b6105556107b360201b60201c565b1561058c576040517fd93c066500000000000000000000000000000000000000000000000000000000815260040160405180910390fd5b565b600073ffffffffffffffffffffffffffffffffffffffff168373ffffffffffffffffffffffffffffffffffffffff16036105e05780600260008282546105d49190610de0565b925050819055506106b3565b60008060008573ffffffffffffffffffffffffffffffffffffffff1673ffffffffffffffffffffffffffffffffffffffff1681526020019081526020016000205490508181101561066c578381836040517fe450d38c00000000000000000000000000000000000000000000000000000000815260040161066393929190610e14565b60405180910390fd5b8181036000808673ffffffffffffffffffffffffffffffffffffffff1673ffffffffffffffffffffffffffffffffffffffff16815260200190815260200160002081905550505b600073ffffffffffffffffffffffffffffffffffffffff168273ffffffffffffffffffffffffffffffffffffffff16036106fc5780600260008282540392505081905550610749565b806000808473ffffffffffffffffffffffffffffffffffffffff1673ffffffffffffffffffffffffffffffffffffffff168152602001908152602001600020600082825401925050819055505b8173ffffffffffffffffffffffffffffffffffffffff168373ffffffffffffffffffffffffffffffffffffffff167fddf252ad1be2c89b69c2b068fc378daa952ba7f163c4a11628f55a4df523b3ef836040516107a69190610e4b565b60405180910390a3505050565b6000600560009054906101000a900460ff16905090565b600080fd5b600073ffffffffffffffffffffffffffffffffffffffff82169050919050565b60006107fa826107cf565b9050919050565b61080a816107ef565b811461081557600080fd5b50565b60008151905061082781610801565b92915050565b6000819050919050565b6108408161082d565b811461084b57600080fd5b50565b60008151905061085d81610837565b92915050565b60008060006060848603121561087c5761087b6107ca565b5b600061088a86828701610818565b935050602061089b86828701610818565b92505060406108ac8682870161084e565b9150509250925092565b600081519050919050565b7f4e487b7100000000000000000000000000000000000000000000000000000000600052604160045260246000fd5b7f4e487b7100000000000000000000000000000000000000000000000000000000600052602260045260246000fd5b6000600282049050600182168061093757607f821691505b60208210810361094a576109496108f0565b5b50919050565b60008190508160005260206000209050919050565b60006020601f8301049050919050565b600082821b905092915050565b6000600883026109b27fffffffffffffffffffffffffffffffffffffffffffffffffffffffffffffffff82610975565b6109bc8683610975565b95508019841693508086168417925050509392505050565b6000819050919050565b60006109f96109f46109ef8461082d565b6109d4565b61082d565b9050919050565b6000819050919050565b610a13836109de565b610a27610a1f82610a00565b848454610982565b825550505050565b600090565b610a3c610a2f565b610a47818484610a0a565b505050565b5b81811015610a6b57610a60600082610a34565b600181019050610a4d565b5050565b601f821115610ab057610a8181610950565b610a8a84610965565b81016020851015610a99578190505b610aad610aa585610965565b830182610a4c565b50505b505050565b600082821c905092915050565b6000610ad360001984600802610ab5565b1980831691505092915050565b6000610aec8383610ac2565b9150826002028217905092915050565b610b05826108b6565b67ffffffffffffffff811115610b1e57610b1d6108c1565b5b610b28825461091f565b610b33828285610a6f565b600060209050601f831160018114610b665760008415610b54578287015190505b610b5e8582610ae0565b865550610bc6565b601f198416610b7486610950565b60005b82811015610b9c57848901518255600182019150602085019450602081019050610b77565b86831015610bb95784890151610bb5601f891682610ac2565b8355505b6001600288020188555050505b505050505050565b610bd7816107ef565b82525050565b6000602082019050610bf26000830184610bce565b92915050565b6000819050919050565b610c0b81610bf8565b82525050565b610c1a8161082d565b82525050565b600060a082019050610c356000830188610c02565b610c426020830187610c02565b610c4f6040830186610c02565b610c5c6060830185610c11565b610c696080830184610bce565b9695505050505050565b600082825260208201905092915050565b60005b83811015610ca2578082015181840152602081019050610c87565b60008484015250505050565b6000601f19601f8301169050919050565b6000610cca826108b6565b610cd48185610c73565b9350610ce4818560208601610c84565b610ced81610cae565b840191505092915050565b60006020820190508181036000830152610d128184610cbf565b905092915050565b600081519050919050565b6000819050602082019050919050565b6000610d418251610bf8565b80915050919050565b6000610d5582610d1a565b82610d5f84610d25565b9050610d6a81610d35565b92506020821015610daa57610da57fffffffffffffffffffffffffffffffffffffffffffffffffffffffffffffffff83602003600802610975565b831692505b5050919050565b7f4e487b7100000000000000000000000000000000000000000000000000000000600052601160045260246000fd5b6000610deb8261082d565b9150610df68361082d565b9250828201905080821115610e0e57610e0d610db1565b5b92915050565b6000606082019050610e296000830186610bce565b610e366020830185610c11565b610e436040830184610c11565b949350505050565b6000602082019050610e606000830184610c11565b92915050565b60805160a05160c05160e05161010051610120516101405161335b610ec06000396000611a3b01526000611a0001526000611d3b01526000611d1a01526000611563015260006115b9015260006115e2015261335b6000f3fe6080604052600436106101e35760003560e01c80635c975abb116101025780639012c4a811610095578063c8639bda11610064578063c8639bda146106bc578063d505accf146106e7578063dd62ed3e14610710578063f2fde38b1461074d576101e3565b80639012c4a814610600578063951166c01461062957806395d89b4114610654578063a9059cbb1461067f576101e3565b80637ecebe00116100d15780637ecebe00146105505780638456cb591461058d57806384b0196e146105a45780638da5cb5b146105d5576101e3565b80635c975abb146104a857806370a08231146104d3578063715018a61461051057806379cc679014610527576101e3565b8063313ce5671161017a5780633f4ba83a116101495780633f4ba83a1461042357806340c10f191461043a57806342966c6814610463578063469c81101461048c576101e3565b8063313ce567146103795780633644e515146103a457806339d52418146103cf5780633ccfd60b1461040c576101e3565b80630dfe5a71116101b65780630dfe5a71146102bb57806318160ddd146102e657806323b872dd146103115780632ff2e9dc1461034e576101e3565b806306fdde03146101e8578063095ea7b3146102135780630c395cd6146102505780630d80fefd1461027b575b600080fd5b3480156101f457600080fd5b506101fd610776565b60405161020a91906124a3565b60405180910390f35b34801561021f57600080fd5b5061023a60048036038101906102359190612563565b610808565b60405161024791906125be565b60405180910390f35b34801561025c57600080fd5b5061026561082b565b6040516102729190612766565b60405180910390f35b34801561028757600080fd5b506102a2600480360381019061029d9190612788565b610a0f565b6040516102b294939291906127d3565b60405180910390f35b3480156102c757600080fd5b506102d0610ae7565b6040516102dd919061281f565b60405180910390f35b3480156102f257600080fd5b506102fb610aec565b604051610308919061281f565b60405180910390f35b34801561031d57600080fd5b506103386004803603810190610333919061283a565b610af6565b60405161034591906125be565b60405180910390f35b34801561035a57600080fd5b50610363610b25565b604051610370919061281f565b60405180910390f35b34801561038557600080fd5b5061038e610b35565b60405161039b91906128a9565b60405180910390f35b3480156103b057600080fd5b506103b9610b3e565b6040516103c691906128dd565b60405180910390f35b3480156103db57600080fd5b506103f660048036038101906103f191906128f8565b610b4d565b604051610403919061281f565b60405180910390f35b34801561041857600080fd5b50610421610b65565b005b34801561042f57600080fd5b50610438610bbd565b005b34801561044657600080fd5b50610461600480360381019061045c9190612563565b610c0f565b005b34801561046f57600080fd5b5061048a60048036038101906104859190612788565b610c25565b005b6104a660048036038101906104a1919061298a565b610c39565b005b3480156104b457600080fd5b506104bd610e92565b6040516104ca91906125be565b60405180910390f35b3480156104df57600080fd5b506104fa60048036038101906104f591906128f8565b610ea9565b604051610507919061281f565b60405180910390f35b34801561051c57600080fd5b50610525610ef1565b005b34801561053357600080fd5b5061054e60048036038101906105499190612563565b610f05565b005b34801561055c57600080fd5b50610577600480360381019061057291906128f8565b610f25565b604051610584919061281f565b60405180910390f35b34801561059957600080fd5b506105a2610f37565b005b3480156105b057600080fd5b506105b9610f89565b6040516105cc9796959493929190612ac1565b60405180910390f35b3480156105e157600080fd5b506105ea611033565b6040516105f79190612b45565b60405180910390f35b34801561060c57600080fd5b5061062760048036038101906106229190612788565b61105d565b005b34801561063557600080fd5b5061063e6110a6565b60405161064b919061281f565b60405180910390f35b34801561066057600080fd5b506106696110ac565b60405161067691906124a3565b60405180910390f35b34801561068b57600080fd5b506106a660048036038101906106a19190612563565b61113e565b6040516106b391906125be565b60405180910390f35b3480156106c857600080fd5b506106d1611161565b6040516106de919061281f565b60405180910390f35b3480156106f357600080fd5b5061070e60048036038101906107099190612bb8565b611167565b005b34801561071c57600080fd5b5061073760048036038101906107329190612c5a565b6112af565b604051610744919061281f565b60405180910390f35b34801561075957600080fd5b50610774600480360381019061076f91906128f8565b611336565b005b60606003805461078590612cc9565b80601f01602080910402602001604051908101604052809291908181526020018280546107b190612cc9565b80156107fe5780601f106107d3576101008083540402835291602001916107fe565b820191906000526020600020905b8154815290600101906020018083116107e157829003601f168201915b5050505050905090565b6000806108136113bc565b90506108208185856113c4565b600191505092915050565b60606000600a80541061083f57600a610843565b600a545b905060008167ffffffffffffffff81111561086157610860612cfa565b5b60405190808252806020026020018201604052801561089a57816020015b6108876123d5565b81526020019060019003908161087f5790505b50905060005b82811015610a0657600c6000826001600a546108bc9190612d58565b6108c69190612d58565b815260200190815260200160002060405180608001604052908160008201548152602001600182015481526020016002820160009054906101000a900473ffffffffffffffffffffffffffffffffffffffff1673ffffffffffffffffffffffffffffffffffffffff1673ffffffffffffffffffffffffffffffffffffffff16815260200160038201805461095990612cc9565b80601f016020809104026020016040519081016040528092919081815260200182805461098590612cc9565b80156109d25780601f106109a7576101008083540402835291602001916109d2565b820191906000526020600020905b8154815290600101906020018083116109b557829003601f168201915b5050505050815250508282815181106109ee576109ed612d8c565b5b602002602001018190525080806001019150506108a0565b50809250505090565b600c6020528060005260406000206000915090508060000154908060010154908060020160009054906101000a900473ffffffffffffffffffffffffffffffffffffffff1690806003018054610a6490612cc9565b80601f0160208091040260200160405190810160405280929190818152602001828054610a9090612cc9565b8015610add5780601f10610ab257610100808354040283529160200191610add565b820191906000526020600020905b815481529060010190602001808311610ac057829003601f168201915b5050505050905084565b600a81565b6000600254905090565b600080610b016113bc565b9050610b0e8582856113d6565b610b1985858561146b565b60019150509392505050565b6b033b2e3c9fd0803ce800000081565b60006012905090565b6000610b4861155f565b905090565b600b6020528060005260406000206000915090505481565b610b6d611616565b610b75611033565b73ffffffffffffffffffffffffffffffffffffffff166108fc479081150290604051600060405180830381858888f19350505050158015610bba573d6000803e3d6000fd5b50565b610bc5611616565b610bcd61169d565b610bd56116dd565b7f48e07a55b1796e55935d48a9fe0bea2963907ee650db9746c8b39dd99e5845e46000604051610c0591906125be565b60405180910390a1565b610c17611616565b610c218282611740565b5050565b610c36610c306113bc565b826117c2565b50565b610c41611844565b600954341015610c86576040517f08c379a0000000000000000000000000000000000000000000000000000000008152600401610c7d90612e07565b60405180910390fd5b6040518060800160405280600a5481526020014281526020013373ffffffffffffffffffffffffffffffffffffffff16815260200183838080601f016020809104026020016040519081016040528093929190818152602001838380828437600081840152601f19601f82011690508083019250505050505050815250600c6000600a548152602001908152602001600020600082015181600001556020820151816001015560408201518160020160006101000a81548173ffffffffffffffffffffffffffffffffffffffff021916908373ffffffffffffffffffffffffffffffffffffffff1602179055506060820151816003019081610d889190612fd3565b50905050600a6000815480929190610d9f906130a5565b9190505550600b60003373ffffffffffffffffffffffffffffffffffffffff1673ffffffffffffffffffffffffffffffffffffffff1681526020019081526020016000206000815480929190610df4906130a5565b91905055503373ffffffffffffffffffffffffffffffffffffffff167fba63055cdf1630484f0cc149e0d52cf629649e401930ae2bbf91842f6089132a8383600b60003373ffffffffffffffffffffffffffffffffffffffff1673ffffffffffffffffffffffffffffffffffffffff16815260200190815260200160002054600a54604051610e869493929190613129565b60405180910390a25050565b6000600560009054906101000a900460ff16905090565b60008060008373ffffffffffffffffffffffffffffffffffffffff1673ffffffffffffffffffffffffffffffffffffffff168152602001908152602001600020549050919050565b610ef9611616565b610f036000611885565b565b610f1782610f116113bc565b836113d6565b610f2182826117c2565b5050565b6000610f308261194b565b9050919050565b610f3f611616565b610f47611844565b610f4f611994565b7f48e07a55b1796e55935d48a9fe0bea2963907ee650db9746c8b39dd99e5845e46001604051610f7f91906125be565b60405180910390a1565b600060608060008060006060610f9d6119f7565b610fa5611a32565b46306000801b600067ffffffffffffffff811115610fc657610fc5612cfa565b5b604051908082528060200260200182016040528015610ff45781602001602082028036833780820191505090505b507f0f00000000000000000000000000000000000000000000000000000000000000959493929190965096509650965096509650965090919293949596565b6000600560019054906101000a900473ffffffffffffffffffffffffffffffffffffffff16905090565b611065611616565b806009819055507f8c4d35e54a3f2ef1134138fd8ea3daee6a3c89e10d2665996babdf70261e2c768160405161109b919061281f565b60405180910390a150565b600a5481565b6060600480546110bb90612cc9565b80601f01602080910402602001604051908101604052809291908181526020018280546110e790612cc9565b80156111345780601f1061110957610100808354040283529160200191611134565b820191906000526020600020905b81548152906001019060200180831161111757829003601f168201915b5050505050905090565b6000806111496113bc565b905061115681858561146b565b600191505092915050565b60095481565b834211156111ac57836040517f627913020000000000000000000000000000000000000000000000000000000081526004016111a3919061281f565b60405180910390fd5b60007f6e71edae12b1b97f4d1f60370fef10105fa2faae0126114a169c64845d6126c98888886111db8c611a6d565b896040516020016111f196959493929190613169565b604051602081830303815290604052805190602001209050600061121482611ac4565b9050600061122482878787611ade565b90508973ffffffffffffffffffffffffffffffffffffffff168173ffffffffffffffffffffffffffffffffffffffff161461129857808a6040517f4b800e4600000000000000000000000000000000000000000000000000000000815260040161128f9291906131ca565b60405180910390fd5b6112a38a8a8a6113c4565b50505050505050505050565b6000600160008473ffffffffffffffffffffffffffffffffffffffff1673ffffffffffffffffffffffffffffffffffffffff16815260200190815260200160002060008373ffffffffffffffffffffffffffffffffffffffff1673ffffffffffffffffffffffffffffffffffffffff16815260200190815260200160002054905092915050565b61133e611616565b600073ffffffffffffffffffffffffffffffffffffffff168173ffffffffffffffffffffffffffffffffffffffff16036113b05760006040517f1e4fbdf70000000000000000000000000000000000000000000000000000000081526004016113a79190612b45565b60405180910390fd5b6113b981611885565b50565b600033905090565b6113d18383836001611b0e565b505050565b60006113e284846112af565b90507fffffffffffffffffffffffffffffffffffffffffffffffffffffffffffffffff8110156114655781811015611455578281836040517ffb8f41b200000000000000000000000000000000000000000000000000000000815260040161144c939291906131f3565b60405180910390fd5b61146484848484036000611b0e565b5b50505050565b600073ffffffffffffffffffffffffffffffffffffffff168373ffffffffffffffffffffffffffffffffffffffff16036114dd5760006040517f96c6fd1e0000000000000000000000000000000000000000000000000000000081526004016114d49190612b45565b60405180910390fd5b600073ffffffffffffffffffffffffffffffffffffffff168273ffffffffffffffffffffffffffffffffffffffff160361154f5760006040517fec442f050000000000000000000000000000000000000000000000000000000081526004016115469190612b45565b60405180910390fd5b61155a838383611ce5565b505050565b60007f000000000000000000000000000000000000000000000000000000000000000073ffffffffffffffffffffffffffffffffffffffff163073ffffffffffffffffffffffffffffffffffffffff161480156115db57507f000000000000000000000000000000000000000000000000000000000000000046145b15611608577f00000000000000000000000000000000000000000000000000000000000000009050611613565b611610611cf5565b90505b90565b61161e6113bc565b73ffffffffffffffffffffffffffffffffffffffff1661163c611033565b73ffffffffffffffffffffffffffffffffffffffff161461169b5761165f6113bc565b6040517f118cdaa70000000000000000000000000000000000000000000000000000000081526004016116929190612b45565b60405180910390fd5b565b6116a5610e92565b6116db576040517f8dfc202b00000000000000000000000000000000000000000000000000000000815260040160405180910390fd5b565b6116e561169d565b6000600560006101000a81548160ff0219169083151502179055507f5db9ee0a495bf2e6ff9c91a7834c1ba4fdd244a5e8aa4e537bd38aeae4b073aa6117296113bc565b6040516117369190612b45565b60405180910390a1565b600073ffffffffffffffffffffffffffffffffffffffff168273ffffffffffffffffffffffffffffffffffffffff16036117b25760006040517fec442f050000000000000000000000000000000000000000000000000000000081526004016117a99190612b45565b60405180910390fd5b6117be60008383611ce5565b5050565b600073ffffffffffffffffffffffffffffffffffffffff168273ffffffffffffffffffffffffffffffffffffffff16036118345760006040517f96c6fd1e00000000000000000000000000000000000000000000000000000000815260040161182b9190612b45565b60405180910390fd5b61184082600083611ce5565b5050565b61184c610e92565b15611883576040517fd93c066500000000000000000000000000000000000000000000000000000000815260040160405180910390fd5b565b6000600560019054906101000a900473ffffffffffffffffffffffffffffffffffffffff16905081600560016101000a81548173ffffffffffffffffffffffffffffffffffffffff021916908373ffffffffffffffffffffffffffffffffffffffff1602179055508173ffffffffffffffffffffffffffffffffffffffff168173ffffffffffffffffffffffffffffffffffffffff167f8be0079c531659141344cd1fd0a4f28419497f9722a3daafe3b4186f6b6457e060405160405180910390a35050565b6000600860008373ffffffffffffffffffffffffffffffffffffffff1673ffffffffffffffffffffffffffffffffffffffff168152602001908152602001600020549050919050565b61199c611844565b6001600560006101000a81548160ff0219169083151502179055507f62e78cea01bee320cd4e420270b5ea74000d11b0c9f74754ebdbfc544b05a2586119e06113bc565b6040516119ed9190612b45565b60405180910390a1565b6060611a2d60067f0000000000000000000000000000000000000000000000000000000000000000611d8b90919063ffffffff16565b905090565b6060611a6860077f0000000000000000000000000000000000000000000000000000000000000000611d8b90919063ffffffff16565b905090565b6000600860008373ffffffffffffffffffffffffffffffffffffffff1673ffffffffffffffffffffffffffffffffffffffff1681526020019081526020016000206000815480929190600101919050559050919050565b6000611ad7611ad161155f565b83611e3b565b9050919050565b600080600080611af088888888611e7c565b925092509250611b008282611f70565b829350505050949350505050565b600073ffffffffffffffffffffffffffffffffffffffff168473ffffffffffffffffffffffffffffffffffffffff1603611b805760006040517fe602df05000000000000000000000000000000000000000000000000000000008152600401611b779190612b45565b60405180910390fd5b600073ffffffffffffffffffffffffffffffffffffffff168373ffffffffffffffffffffffffffffffffffffffff1603611bf25760006040517f94280d62000000000000000000000000000000000000000000000000000000008152600401611be99190612b45565b60405180910390fd5b81600160008673ffffffffffffffffffffffffffffffffffffffff1673ffffffffffffffffffffffffffffffffffffffff16815260200190815260200160002060008573ffffffffffffffffffffffffffffffffffffffff1673ffffffffffffffffffffffffffffffffffffffff168152602001908152602001600020819055508015611cdf578273ffffffffffffffffffffffffffffffffffffffff168473ffffffffffffffffffffffffffffffffffffffff167f8c5be1e5ebec7d5bd14f71427d1e84f3dd0314c0f7b2291e5b200ac8c7c3b92584604051611cd6919061281f565b60405180910390a35b50505050565b611cf08383836120d4565b505050565b60007f8b73c3c69bb8fe3d512ecc4cf759cc79239f7b179b0ffacaa9a75d522b39400f7f00000000000000000000000000000000000000000000000000000000000000007f00000000000000000000000000000000000000000000000000000000000000004630604051602001611d7095949392919061322a565b60405160208183030381529060405280519060200120905090565b606060ff60001b8314611da857611da1836120ec565b9050611e35565b818054611db490612cc9565b80601f0160208091040260200160405190810160405280929190818152602001828054611de090612cc9565b8015611e2d5780601f10611e0257610100808354040283529160200191611e2d565b820191906000526020600020905b815481529060010190602001808311611e1057829003601f168201915b505050505090505b92915050565b60006040517f190100000000000000000000000000000000000000000000000000000000000081528360028201528260228201526042812091505092915050565b60008060007f7fffffffffffffffffffffffffffffff5d576e7357a4501ddfe92f46681b20a08460001c1115611ebc576000600385925092509250611f66565b600060018888888860405160008152602001604052604051611ee1949392919061327d565b6020604051602081039080840390855afa158015611f03573d6000803e3d6000fd5b505050602060405103519050600073ffffffffffffffffffffffffffffffffffffffff168173ffffffffffffffffffffffffffffffffffffffff1603611f5757600060016000801b93509350935050611f66565b8060008060001b935093509350505b9450945094915050565b60006003811115611f8457611f836132c2565b5b826003811115611f9757611f966132c2565b5b03156120d05760016003811115611fb157611fb06132c2565b5b826003811115611fc457611fc36132c2565b5b03611ffb576040517ff645eedf00000000000000000000000000000000000000000000000000000000815260040160405180910390fd5b6002600381111561200f5761200e6132c2565b5b826003811115612022576120216132c2565b5b03612067578060001c6040517ffce698f700000000000000000000000000000000000000000000000000000000815260040161205e919061281f565b60405180910390fd5b60038081111561207a576120796132c2565b5b82600381111561208d5761208c6132c2565b5b036120cf57806040517fd78bce0c0000000000000000000000000000000000000000000000000000000081526004016120c691906128dd565b60405180910390fd5b5b5050565b6120dc611844565b6120e7838383612160565b505050565b606060006120f983612385565b90506000602067ffffffffffffffff81111561211857612117612cfa565b5b6040519080825280601f01601f19166020018201604052801561214a5781602001600182028036833780820191505090505b5090508181528360208201528092505050919050565b600073ffffffffffffffffffffffffffffffffffffffff168373ffffffffffffffffffffffffffffffffffffffff16036121b25780600260008282546121a691906132f1565b92505081905550612285565b60008060008573ffffffffffffffffffffffffffffffffffffffff1673ffffffffffffffffffffffffffffffffffffffff1681526020019081526020016000205490508181101561223e578381836040517fe450d38c000000000000000000000000000000000000000000000000000000008152600401612235939291906131f3565b60405180910390fd5b8181036000808673ffffffffffffffffffffffffffffffffffffffff1673ffffffffffffffffffffffffffffffffffffffff16815260200190815260200160002081905550505b600073ffffffffffffffffffffffffffffffffffffffff168273ffffffffffffffffffffffffffffffffffffffff16036122ce578060026000828254039250508190555061231b565b806000808473ffffffffffffffffffffffffffffffffffffffff1673ffffffffffffffffffffffffffffffffffffffff168152602001908152602001600020600082825401925050819055505b8173ffffffffffffffffffffffffffffffffffffffff168373ffffffffffffffffffffffffffffffffffffffff167fddf252ad1be2c89b69c2b068fc378daa952ba7f163c4a11628f55a4df523b3ef83604051612378919061281f565b60405180910390a3505050565b60008060ff8360001c169050601f8111156123cc576040517fb3512b0c00000000000000000000000000000000000000000000000000000000815260040160405180910390fd5b80915050919050565b60405180608001604052806000815260200160008152602001600073ffffffffffffffffffffffffffffffffffffffff168152602001606081525090565b600081519050919050565b600082825260208201905092915050565b60005b8381101561244d578082015181840152602081019050612432565b60008484015250505050565b6000601f19601f8301169050919050565b600061247582612413565b61247f818561241e565b935061248f81856020860161242f565b61249881612459565b840191505092915050565b600060208201905081810360008301526124bd818461246a565b905092915050565b600080fd5b600080fd5b600073ffffffffffffffffffffffffffffffffffffffff82169050919050565b60006124fa826124cf565b9050919050565b61250a816124ef565b811461251557600080fd5b50565b60008135905061252781612501565b92915050565b6000819050919050565b6125408161252d565b811461254b57600080fd5b50565b60008135905061255d81612537565b92915050565b6000806040838503121561257a576125796124c5565b5b600061258885828601612518565b92505060206125998582860161254e565b9150509250929050565b60008115159050919050565b6125b8816125a3565b82525050565b60006020820190506125d360008301846125af565b92915050565b600081519050919050565b600082825260208201905092915050565b6000819050602082019050919050565b61260e8161252d565b82525050565b61261d816124ef565b82525050565b600082825260208201905092915050565b600061263f82612413565b6126498185612623565b935061265981856020860161242f565b61266281612459565b840191505092915050565b60006080830160008301516126856000860182612605565b5060208301516126986020860182612605565b5060408301516126ab6040860182612614565b50606083015184820360608601526126c38282612634565b9150508091505092915050565b60006126dc838361266d565b905092915050565b6000602082019050919050565b60006126fc826125d9565b61270681856125e4565b935083602082028501612718856125f5565b8060005b85811015612754578484038952815161273585826126d0565b9450612740836126e4565b925060208a0199505060018101905061271c565b50829750879550505050505092915050565b6000602082019050818103600083015261278081846126f1565b905092915050565b60006020828403121561279e5761279d6124c5565b5b60006127ac8482850161254e565b91505092915050565b6127be8161252d565b82525050565b6127cd816124ef565b82525050565b60006080820190506127e860008301876127b5565b6127f560208301866127b5565b61280260408301856127c4565b8181036060830152612814818461246a565b905095945050505050565b600060208201905061283460008301846127b5565b92915050565b600080600060608486031215612853576128526124c5565b5b600061286186828701612518565b935050602061287286828701612518565b92505060406128838682870161254e565b9150509250925092565b600060ff82169050919050565b6128a38161288d565b82525050565b60006020820190506128be600083018461289a565b92915050565b6000819050919050565b6128d7816128c4565b82525050565b60006020820190506128f260008301846128ce565b92915050565b60006020828403121561290e5761290d6124c5565b5b600061291c84828501612518565b91505092915050565b600080fd5b600080fd5b600080fd5b60008083601f84011261294a57612949612925565b5b8235905067ffffffffffffffff8111156129675761296661292a565b5b6020830191508360018202830111156129835761298261292f565b5b9250929050565b600080602083850312156129a1576129a06124c5565b5b600083013567ffffffffffffffff8111156129bf576129be6124ca565b5b6129cb85828601612934565b92509250509250929050565b60007fff0000000000000000000000000000000000000000000000000000000000000082169050919050565b612a0c816129d7565b82525050565b600081519050919050565b600082825260208201905092915050565b6000819050602082019050919050565b6000612a4a8383612605565b60208301905092915050565b6000602082019050919050565b6000612a6e82612a12565b612a788185612a1d565b9350612a8383612a2e565b8060005b83811015612ab4578151612a9b8882612a3e565b9750612aa683612a56565b925050600181019050612a87565b5085935050505092915050565b600060e082019050612ad6600083018a612a03565b8181036020830152612ae8818961246a565b90508181036040830152612afc818861246a565b9050612b0b60608301876127b5565b612b1860808301866127c4565b612b2560a08301856128ce565b81810360c0830152612b378184612a63565b905098975050505050505050565b6000602082019050612b5a60008301846127c4565b92915050565b612b698161288d565b8114612b7457600080fd5b50565b600081359050612b8681612b60565b92915050565b612b95816128c4565b8114612ba057600080fd5b50565b600081359050612bb281612b8c565b92915050565b600080600080600080600060e0888a031215612bd757612bd66124c5565b5b6000612be58a828b01612518565b9750506020612bf68a828b01612518565b9650506040612c078a828b0161254e565b9550506060612c188a828b0161254e565b9450506080612c298a828b01612b77565b93505060a0612c3a8a828b01612ba3565b92505060c0612c4b8a828b01612ba3565b91505092959891949750929550565b60008060408385031215612c7157612c706124c5565b5b6000612c7f85828601612518565b9250506020612c9085828601612518565b9150509250929050565b7f4e487b7100000000000000000000000000000000000000000000000000000000600052602260045260246000fd5b60006002820490506001821680612ce157607f821691505b602082108103612cf457612cf3612c9a565b5b50919050565b7f4e487b7100000000000000000000000000000000000000000000000000000000600052604160045260246000fd5b7f4e487b7100000000000000000000000000000000000000000000000000000000600052601160045260246000fd5b6000612d638261252d565b9150612d6e8361252d565b9250828203905081811115612d8657612d85612d29565b5b92915050565b7f4e487b7100000000000000000000000000000000000000000000000000000000600052603260045260246000fd5b7f496e73756666696369656e742066656500000000000000000000000000000000600082015250565b6000612df160108361241e565b9150612dfc82612dbb565b602082019050919050565b60006020820190508181036000830152612e2081612de4565b9050919050565b60008190508160005260206000209050919050565b60006020601f8301049050919050565b600082821b905092915050565b600060088302612e897fffffffffffffffffffffffffffffffffffffffffffffffffffffffffffffffff82612e4c565b612e938683612e4c565b95508019841693508086168417925050509392505050565b6000819050919050565b6000612ed0612ecb612ec68461252d565b612eab565b61252d565b9050919050565b6000819050919050565b612eea83612eb5565b612efe612ef682612ed7565b848454612e59565b825550505050565b600090565b612f13612f06565b612f1e818484612ee1565b505050565b5b81811015612f4257612f37600082612f0b565b600181019050612f24565b5050565b601f821115612f8757612f5881612e27565b612f6184612e3c565b81016020851015612f70578190505b612f84612f7c85612e3c565b830182612f23565b50505b505050565b600082821c905092915050565b6000612faa60001984600802612f8c565b1980831691505092915050565b6000612fc38383612f99565b9150826002028217905092915050565b612fdc82612413565b67ffffffffffffffff811115612ff557612ff4612cfa565b5b612fff8254612cc9565b61300a828285612f46565b600060209050601f83116001811461303d576000841561302b578287015190505b6130358582612fb7565b86555061309d565b601f19841661304b86612e27565b60005b828110156130735784890151825560018201915060208501945060208101905061304e565b86831015613090578489015161308c601f891682612f99565b8355505b6001600288020188555050505b505050505050565b60006130b08261252d565b91507fffffffffffffffffffffffffffffffffffffffffffffffffffffffffffffffff82036130e2576130e1612d29565b5b600182019050919050565b82818337600083830152505050565b6000613108838561241e565b93506131158385846130ed565b61311e83612459565b840190509392505050565b600060608201905081810360008301526131448186886130fc565b905061315360208301856127b5565b61316060408301846127b5565b95945050505050565b600060c08201905061317e60008301896128ce565b61318b60208301886127c4565b61319860408301876127c4565b6131a560608301866127b5565b6131b260808301856127b5565b6131bf60a08301846127b5565b979650505050505050565b60006040820190506131df60008301856127c4565b6131ec60208301846127c4565b9392505050565b600060608201905061320860008301866127c4565b61321560208301856127b5565b61322260408301846127b5565b949350505050565b600060a08201905061323f60008301886128ce565b61324c60208301876128ce565b61325960408301866128ce565b61326660608301856127b5565b61327360808301846127c4565b9695505050505050565b600060808201905061329260008301876128ce565b61329f602083018661289a565b6132ac60408301856128ce565b6132b960608301846128ce565b95945050505050565b7f4e487b7100000000000000000000000000000000000000000000000000000000600052602160045260246000fd5b60006132fc8261252d565b91506133078361252d565b925082820190508082111561331f5761331e612d29565b5b9291505056fea2646970667358221220e3ed3237e2be4e3a9bb2a280015bfcbc5b6ed787c07640e5c5400f4f5d47d76964736f6c634300081a0033",
  "linkReferences": {},
  "deployedLinkReferences": {}
}